{
  "_format": "hh-sol-artifact-1",
  "contractName": "BuyMeACoffee",
  "sourceName": "contracts/BuyMeACoffee.sol",
  "abi": [
    {
      "inputs": [],
      "stateMutability": "nonpayable",
      "type": "constructor"
    },
    {
      "anonymous": false,
      "inputs": [
        {
          "indexed": true,
          "internalType": "address",
          "name": "from",
          "type": "address"
        },
        {
          "indexed": false,
          "internalType": "uint256",
          "name": "timestamp",
          "type": "uint256"
        },
        {
          "indexed": false,
          "internalType": "string",
          "name": "name",
          "type": "string"
        },
        {
          "indexed": false,
          "internalType": "string",
          "name": "messagge",
          "type": "string"
        }
      ],
      "name": "NewMemo",
      "type": "event"
    },
    {
      "inputs": [
        {
          "internalType": "string",
          "name": "_name",
          "type": "string"
        },
        {
          "internalType": "string",
          "name": "_messagge",
          "type": "string"
        }
      ],
      "name": "buyACoffee",
      "outputs": [],
      "stateMutability": "payable",
      "type": "function"
    },
    {
      "inputs": [],
      "name": "getMemos",
      "outputs": [
        {
          "components": [
            {
              "internalType": "address",
              "name": "from",
              "type": "address"
            },
            {
              "internalType": "uint256",
              "name": "timestamp",
              "type": "uint256"
            },
            {
              "internalType": "string",
              "name": "name",
              "type": "string"
            },
            {
              "internalType": "string",
              "name": "message",
              "type": "string"
            }
          ],
          "internalType": "struct BuyMeACoffee.Memo[]",
          "name": "",
          "type": "tuple[]"
        }
      ],
      "stateMutability": "view",
      "type": "function"
    },
    {
      "inputs": [],
      "name": "withdrawTips",
      "outputs": [],
      "stateMutability": "nonpayable",
      "type": "function"
    }
  ],
  "bytecode": "0x608060405234801561001057600080fd5b50336000806101000a81548173ffffffffffffffffffffffffffffffffffffffff021916908373ffffffffffffffffffffffffffffffffffffffff160217905550610e87806100606000396000f3fe6080604052600436106100345760003560e01c80633aaa74b214610039578063865c517214610050578063e810d34e1461007b575b600080fd5b34801561004557600080fd5b5061004e610097565b005b34801561005c57600080fd5b506100656101f5565b6040516100729190610768565b60405180910390f35b610095600480360381019061009091906108d3565b6103d8565b005b60008054906101000a900473ffffffffffffffffffffffffffffffffffffffff1673ffffffffffffffffffffffffffffffffffffffff163373ffffffffffffffffffffffffffffffffffffffff1614610125576040517f08c379a000000000000000000000000000000000000000000000000000000000815260040161011c906109a8565b60405180910390fd5b60008060009054906101000a900473ffffffffffffffffffffffffffffffffffffffff1673ffffffffffffffffffffffffffffffffffffffff164760405161016c906109f9565b60006040518083038185875af1925050503d80600081146101a9576040519150601f19603f3d011682016040523d82523d6000602084013e6101ae565b606091505b50509050806101f2576040517f08c379a00000000000000000000000000000000000000000000000000000000081526004016101e990610a5a565b60405180910390fd5b50565b60606001805480602002602001604051908101604052809291908181526020016000905b828210156103cf57838290600052602060002090600402016040518060800160405290816000820160009054906101000a900473ffffffffffffffffffffffffffffffffffffffff1673ffffffffffffffffffffffffffffffffffffffff1673ffffffffffffffffffffffffffffffffffffffff168152602001600182015481526020016002820180546102ac90610aa9565b80601f01602080910402602001604051908101604052809291908181526020018280546102d890610aa9565b80156103255780601f106102fa57610100808354040283529160200191610325565b820191906000526020600020905b81548152906001019060200180831161030857829003601f168201915b5050505050815260200160038201805461033e90610aa9565b80601f016020809104026020016040519081016040528092919081815260200182805461036a90610aa9565b80156103b75780601f1061038c576101008083540402835291602001916103b7565b820191906000526020600020905b81548152906001019060200180831161039a57829003601f168201915b50505050508152505081526020019060010190610219565b50505050905090565b6000341161041b576040517f08c379a000000000000000000000000000000000000000000000000000000000815260040161041290610b26565b60405180910390fd5b600160405180608001604052803373ffffffffffffffffffffffffffffffffffffffff16815260200142815260200184815260200183815250908060018154018082558091505060019003906000526020600020906004020160009091909190915060008201518160000160006101000a81548173ffffffffffffffffffffffffffffffffffffffff021916908373ffffffffffffffffffffffffffffffffffffffff1602179055506020820151816001015560408201518160020190816104e39190610cf2565b5060608201518160030190816104f99190610cf2565b5050503373ffffffffffffffffffffffffffffffffffffffff167fc56140e05f516509ae28110e0f72e17558a7561630dad2647c3ae87d986e365c42848460405161054693929190610e0c565b60405180910390a25050565b600081519050919050565b600082825260208201905092915050565b6000819050602082019050919050565b600073ffffffffffffffffffffffffffffffffffffffff82169050919050565b60006105a98261057e565b9050919050565b6105b98161059e565b82525050565b6000819050919050565b6105d2816105bf565b82525050565b600081519050919050565b600082825260208201905092915050565b60005b838110156106125780820151818401526020810190506105f7565b60008484015250505050565b6000601f19601f8301169050919050565b600061063a826105d8565b61064481856105e3565b93506106548185602086016105f4565b61065d8161061e565b840191505092915050565b600060808301600083015161068060008601826105b0565b50602083015161069360208601826105c9565b50604083015184820360408601526106ab828261062f565b915050606083015184820360608601526106c5828261062f565b9150508091505092915050565b60006106de8383610668565b905092915050565b6000602082019050919050565b60006106fe82610552565b610708818561055d565b93508360208202850161071a8561056e565b8060005b85811015610756578484038952815161073785826106d2565b9450610742836106e6565b925060208a0199505060018101905061071e565b50829750879550505050505092915050565b6000602082019050818103600083015261078281846106f3565b905092915050565b6000604051905090565b600080fd5b600080fd5b600080fd5b600080fd5b7f4e487b7100000000000000000000000000000000000000000000000000000000600052604160045260246000fd5b6107e08261061e565b810181811067ffffffffffffffff821117156107ff576107fe6107a8565b5b80604052505050565b600061081261078a565b905061081e82826107d7565b919050565b600067ffffffffffffffff82111561083e5761083d6107a8565b5b6108478261061e565b9050602081019050919050565b82818337600083830152505050565b600061087661087184610823565b610808565b905082815260208101848484011115610892576108916107a3565b5b61089d848285610854565b509392505050565b600082601f8301126108ba576108b961079e565b5b81356108ca848260208601610863565b91505092915050565b600080604083850312156108ea576108e9610794565b5b600083013567ffffffffffffffff81111561090857610907610799565b5b610914858286016108a5565b925050602083013567ffffffffffffffff81111561093557610934610799565b5b610941858286016108a5565b9150509250929050565b600082825260208201905092915050565b7f596f7520617265206e6f7420746865206f776e65720000000000000000000000600082015250565b600061099260158361094b565b915061099d8261095c565b602082019050919050565b600060208201905081810360008301526109c181610985565b9050919050565b600081905092915050565b50565b60006109e36000836109c8565b91506109ee826109d3565b600082019050919050565b6000610a04826109d6565b9150819050919050565b7f4661696c656420546f2053656e74204554480000000000000000000000000000600082015250565b6000610a4460128361094b565b9150610a4f82610a0e565b602082019050919050565b60006020820190508181036000830152610a7381610a37565b9050919050565b7f4e487b7100000000000000000000000000000000000000000000000000000000600052602260045260246000fd5b60006002820490506001821680610ac157607f821691505b602082108103610ad457610ad3610a7a565b5b50919050565b7f492063616e277420627579206120636f6666656520666f722066726565000000600082015250565b6000610b10601d8361094b565b9150610b1b82610ada565b602082019050919050565b60006020820190508181036000830152610b3f81610b03565b9050919050565b60008190508160005260206000209050919050565b60006020601f8301049050919050565b600082821b905092915050565b600060088302610ba87fffffffffffffffffffffffffffffffffffffffffffffffffffffffffffffffff82610b6b565b610bb28683610b6b565b95508019841693508086168417925050509392505050565b6000819050919050565b6000610bef610bea610be5846105bf565b610bca565b6105bf565b9050919050565b6000819050919050565b610c0983610bd4565b610c1d610c1582610bf6565b848454610b78565b825550505050565b600090565b610c32610c25565b610c3d818484610c00565b505050565b5b81811015610c6157610c56600082610c2a565b600181019050610c43565b5050565b601f821115610ca657610c7781610b46565b610c8084610b5b565b81016020851015610c8f578190505b610ca3610c9b85610b5b565b830182610c42565b50505b505050565b600082821c905092915050565b6000610cc960001984600802610cab565b1980831691505092915050565b6000610ce28383610cb8565b9150826002028217905092915050565b610cfb826105d8565b67ffffffffffffffff811115610d1457610d136107a8565b5b610d1e8254610aa9565b610d29828285610c65565b600060209050601f831160018114610d5c5760008415610d4a578287015190505b610d548582610cd6565b865550610dbc565b601f198416610d6a86610b46565b60005b82811015610d9257848901518255600182019150602085019450602081019050610d6d565b86831015610daf5784890151610dab601f891682610cb8565b8355505b6001600288020188555050505b505050505050565b610dcd816105bf565b82525050565b6000610dde826105d8565b610de8818561094b565b9350610df88185602086016105f4565b610e018161061e565b840191505092915050565b6000606082019050610e216000830186610dc4565b8181036020830152610e338185610dd3565b90508181036040830152610e478184610dd3565b905094935050505056fea2646970667358221220ccd9e0921d77e1ab8a1f13ac51ffcb851cecc892ef9f0f510b136f05f3e8569964736f6c63430008110033",
  "linkReferences": {},
  "deployedLinkReferences": {}
}